{
  "_format": "hh-sol-artifact-1",
  "contractName": "Domains",
  "sourceName": "contracts/Domains.sol",
  "abi": [
    {
      "inputs": [
        {
          "internalType": "string",
          "name": "_tld",
          "type": "string"
        }
      ],
      "stateMutability": "payable",
      "type": "constructor"
    },
    {
      "inputs": [],
      "name": "AlreadyRegistered",
      "type": "error"
    },
    {
      "inputs": [
        {
          "internalType": "string",
          "name": "name",
          "type": "string"
        }
      ],
      "name": "InvalidName",
      "type": "error"
    },
    {
      "inputs": [],
      "name": "Unauthorized",
      "type": "error"
    },
    {
      "anonymous": false,
      "inputs": [
        {
          "indexed": true,
          "internalType": "address",
          "name": "owner",
          "type": "address"
        },
        {
          "indexed": true,
          "internalType": "address",
          "name": "approved",
          "type": "address"
        },
        {
          "indexed": true,
          "internalType": "uint256",
          "name": "tokenId",
          "type": "uint256"
        }
      ],
      "name": "Approval",
      "type": "event"
    },
    {
      "anonymous": false,
      "inputs": [
        {
          "indexed": true,
          "internalType": "address",
          "name": "owner",
          "type": "address"
        },
        {
          "indexed": true,
          "internalType": "address",
          "name": "operator",
          "type": "address"
        },
        {
          "indexed": false,
          "internalType": "bool",
          "name": "approved",
          "type": "bool"
        }
      ],
      "name": "ApprovalForAll",
      "type": "event"
    },
    {
      "anonymous": false,
      "inputs": [
        {
          "indexed": true,
          "internalType": "address",
          "name": "from",
          "type": "address"
        },
        {
          "indexed": true,
          "internalType": "address",
          "name": "to",
          "type": "address"
        },
        {
          "indexed": true,
          "internalType": "uint256",
          "name": "tokenId",
          "type": "uint256"
        }
      ],
      "name": "Transfer",
      "type": "event"
    },
    {
      "inputs": [
        {
          "internalType": "address",
          "name": "to",
          "type": "address"
        },
        {
          "internalType": "uint256",
          "name": "tokenId",
          "type": "uint256"
        }
      ],
      "name": "approve",
      "outputs": [],
      "stateMutability": "nonpayable",
      "type": "function"
    },
    {
      "inputs": [
        {
          "internalType": "address",
          "name": "owner",
          "type": "address"
        }
      ],
      "name": "balanceOf",
      "outputs": [
        {
          "internalType": "uint256",
          "name": "",
          "type": "uint256"
        }
      ],
      "stateMutability": "view",
      "type": "function"
    },
    {
      "inputs": [
        {
          "internalType": "string",
          "name": "",
          "type": "string"
        }
      ],
      "name": "domains",
      "outputs": [
        {
          "internalType": "address",
          "name": "",
          "type": "address"
        }
      ],
      "stateMutability": "view",
      "type": "function"
    },
    {
      "inputs": [
        {
          "internalType": "string",
          "name": "",
          "type": "string"
        }
      ],
      "name": "emails",
      "outputs": [
        {
          "internalType": "string",
          "name": "",
          "type": "string"
        }
      ],
      "stateMutability": "view",
      "type": "function"
    },
    {
      "inputs": [
        {
          "internalType": "string",
          "name": "name",
          "type": "string"
        }
      ],
      "name": "getAddress",
      "outputs": [
        {
          "internalType": "address",
          "name": "",
          "type": "address"
        }
      ],
      "stateMutability": "view",
      "type": "function"
    },
    {
      "inputs": [],
      "name": "getAllNames",
      "outputs": [
        {
          "internalType": "string[]",
          "name": "",
          "type": "string[]"
        }
      ],
      "stateMutability": "view",
      "type": "function"
    },
    {
      "inputs": [
        {
          "internalType": "uint256",
          "name": "tokenId",
          "type": "uint256"
        }
      ],
      "name": "getApproved",
      "outputs": [
        {
          "internalType": "address",
          "name": "",
          "type": "address"
        }
      ],
      "stateMutability": "view",
      "type": "function"
    },
    {
      "inputs": [
        {
          "internalType": "string",
          "name": "name",
          "type": "string"
        }
      ],
      "name": "getEmail",
      "outputs": [
        {
          "internalType": "string",
          "name": "",
          "type": "string"
        }
      ],
      "stateMutability": "view",
      "type": "function"
    },
    {
      "inputs": [
        {
          "internalType": "string",
          "name": "name",
          "type": "string"
        }
      ],
      "name": "getRecord",
      "outputs": [
        {
          "internalType": "string",
          "name": "",
          "type": "string"
        }
      ],
      "stateMutability": "view",
      "type": "function"
    },
    {
      "inputs": [
        {
          "internalType": "address",
          "name": "owner",
          "type": "address"
        },
        {
          "internalType": "address",
          "name": "operator",
          "type": "address"
        }
      ],
      "name": "isApprovedForAll",
      "outputs": [
        {
          "internalType": "bool",
          "name": "",
          "type": "bool"
        }
      ],
      "stateMutability": "view",
      "type": "function"
    },
    {
      "inputs": [],
      "name": "isOwner",
      "outputs": [
        {
          "internalType": "bool",
          "name": "",
          "type": "bool"
        }
      ],
      "stateMutability": "view",
      "type": "function"
    },
    {
      "inputs": [],
      "name": "name",
      "outputs": [
        {
          "internalType": "string",
          "name": "",
          "type": "string"
        }
      ],
      "stateMutability": "view",
      "type": "function"
    },
    {
      "inputs": [
        {
          "internalType": "uint256",
          "name": "",
          "type": "uint256"
        }
      ],
      "name": "names",
      "outputs": [
        {
          "internalType": "string",
          "name": "",
          "type": "string"
        }
      ],
      "stateMutability": "view",
      "type": "function"
    },
    {
      "inputs": [],
      "name": "owner",
      "outputs": [
        {
          "internalType": "address payable",
          "name": "",
          "type": "address"
        }
      ],
      "stateMutability": "view",
      "type": "function"
    },
    {
      "inputs": [
        {
          "internalType": "uint256",
          "name": "tokenId",
          "type": "uint256"
        }
      ],
      "name": "ownerOf",
      "outputs": [
        {
          "internalType": "address",
          "name": "",
          "type": "address"
        }
      ],
      "stateMutability": "view",
      "type": "function"
    },
    {
      "inputs": [
        {
          "internalType": "string",
          "name": "name",
          "type": "string"
        }
      ],
      "name": "price",
      "outputs": [
        {
          "internalType": "uint256",
          "name": "",
          "type": "uint256"
        }
      ],
      "stateMutability": "pure",
      "type": "function"
    },
    {
      "inputs": [
        {
          "internalType": "string",
          "name": "",
          "type": "string"
        }
      ],
      "name": "records",
      "outputs": [
        {
          "internalType": "string",
          "name": "",
          "type": "string"
        }
      ],
      "stateMutability": "view",
      "type": "function"
    },
    {
      "inputs": [
        {
          "internalType": "string",
          "name": "name",
          "type": "string"
        }
      ],
      "name": "register",
      "outputs": [],
      "stateMutability": "payable",
      "type": "function"
    },
    {
      "inputs": [
        {
          "internalType": "address",
          "name": "from",
          "type": "address"
        },
        {
          "internalType": "address",
          "name": "to",
          "type": "address"
        },
        {
          "internalType": "uint256",
          "name": "tokenId",
          "type": "uint256"
        }
      ],
      "name": "safeTransferFrom",
      "outputs": [],
      "stateMutability": "nonpayable",
      "type": "function"
    },
    {
      "inputs": [
        {
          "internalType": "address",
          "name": "from",
          "type": "address"
        },
        {
          "internalType": "address",
          "name": "to",
          "type": "address"
        },
        {
          "internalType": "uint256",
          "name": "tokenId",
          "type": "uint256"
        },
        {
          "internalType": "bytes",
          "name": "_data",
          "type": "bytes"
        }
      ],
      "name": "safeTransferFrom",
      "outputs": [],
      "stateMutability": "nonpayable",
      "type": "function"
    },
    {
      "inputs": [
        {
          "internalType": "address",
          "name": "operator",
          "type": "address"
        },
        {
          "internalType": "bool",
          "name": "approved",
          "type": "bool"
        }
      ],
      "name": "setApprovalForAll",
      "outputs": [],
      "stateMutability": "nonpayable",
      "type": "function"
    },
    {
      "inputs": [
        {
          "internalType": "string",
          "name": "name",
          "type": "string"
        },
        {
          "internalType": "string",
          "name": "email",
          "type": "string"
        }
      ],
      "name": "setEmail",
      "outputs": [],
      "stateMutability": "nonpayable",
      "type": "function"
    },
    {
      "inputs": [
        {
          "internalType": "string",
          "name": "name",
          "type": "string"
        },
        {
          "internalType": "string",
          "name": "record",
          "type": "string"
        }
      ],
      "name": "setRecord",
      "outputs": [],
      "stateMutability": "nonpayable",
      "type": "function"
    },
    {
      "inputs": [
        {
          "internalType": "bytes4",
          "name": "interfaceId",
          "type": "bytes4"
        }
      ],
      "name": "supportsInterface",
      "outputs": [
        {
          "internalType": "bool",
          "name": "",
          "type": "bool"
        }
      ],
      "stateMutability": "view",
      "type": "function"
    },
    {
      "inputs": [],
      "name": "symbol",
      "outputs": [
        {
          "internalType": "string",
          "name": "",
          "type": "string"
        }
      ],
      "stateMutability": "view",
      "type": "function"
    },
    {
      "inputs": [],
      "name": "tld",
      "outputs": [
        {
          "internalType": "string",
          "name": "",
          "type": "string"
        }
      ],
      "stateMutability": "view",
      "type": "function"
    },
    {
      "inputs": [
        {
          "internalType": "uint256",
          "name": "tokenId",
          "type": "uint256"
        }
      ],
      "name": "tokenURI",
      "outputs": [
        {
          "internalType": "string",
          "name": "",
          "type": "string"
        }
      ],
      "stateMutability": "view",
      "type": "function"
    },
    {
      "inputs": [
        {
          "internalType": "address",
          "name": "from",
          "type": "address"
        },
        {
          "internalType": "address",
          "name": "to",
          "type": "address"
        },
        {
          "internalType": "uint256",
          "name": "tokenId",
          "type": "uint256"
        }
      ],
      "name": "transferFrom",
      "outputs": [],
      "stateMutability": "nonpayable",
      "type": "function"
    },
    {
      "inputs": [
        {
          "internalType": "string",
          "name": "name",
          "type": "string"
        }
      ],
      "name": "valid",
      "outputs": [
        {
          "internalType": "bool",
          "name": "",
          "type": "bool"
        }
      ],
      "stateMutability": "pure",
      "type": "function"
    },
    {
      "inputs": [],
      "name": "withdraw",
      "outputs": [],
      "stateMutability": "nonpayable",
      "type": "function"
    }
  ],
  "bytecode": "0x6080604052604051806108a0016040528061086b8152602001620057b761086b9139600a908051906020019062000038929190620002c8565b506040518060400160405280600d81526020017f3c2f746578743e3c2f7376673e00000000000000000000000000000000000000815250600b908051906020019062000086929190620002c8565b5060405162006022380380620060228339818101604052810190620000ac919062000515565b6040518060400160405280601481526020017f506f6c79676f6e204e616d6520536572766963650000000000000000000000008152506040518060400160405280600381526020017f504e530000000000000000000000000000000000000000000000000000000000815250816000908051906020019062000130929190620002c8565b50806001908051906020019062000149929190620002c8565b50505033600860006101000a81548173ffffffffffffffffffffffffffffffffffffffff021916908373ffffffffffffffffffffffffffffffffffffffff1602179055508060099080519060200190620001a5929190620002c8565b50620001f26040518060400160405280601881526020017f2573206e616d652073657276696365206465706c6f796564000000000000000081525082620001f960201b62001f271760201c565b5062000663565b6200029b828260405160240162000212929190620005c3565b6040516020818303038152906040527f4b5c4277000000000000000000000000000000000000000000000000000000007bffffffffffffffffffffffffffffffffffffffffffffffffffffffff19166020820180517bffffffffffffffffffffffffffffffffffffffffffffffffffffffff83818316178352505050506200029f60201b60201c565b5050565b60008151905060006a636f6e736f6c652e6c6f679050602083016000808483855afa5050505050565b828054620002d6906200062d565b90600052602060002090601f016020900481019282620002fa576000855562000346565b82601f106200031557805160ff191683800117855562000346565b8280016001018555821562000346579182015b828111156200034557825182559160200191906001019062000328565b5b50905062000355919062000359565b5090565b5b80821115620003745760008160009055506001016200035a565b5090565b6000604051905090565b600080fd5b600080fd5b600080fd5b600080fd5b6000601f19601f8301169050919050565b7f4e487b7100000000000000000000000000000000000000000000000000000000600052604160045260246000fd5b620003e18262000396565b810181811067ffffffffffffffff82111715620004035762000402620003a7565b5b80604052505050565b60006200041862000378565b9050620004268282620003d6565b919050565b600067ffffffffffffffff821115620004495762000448620003a7565b5b620004548262000396565b9050602081019050919050565b60005b838110156200048157808201518184015260208101905062000464565b8381111562000491576000848401525b50505050565b6000620004ae620004a8846200042b565b6200040c565b905082815260208101848484011115620004cd57620004cc62000391565b5b620004da84828562000461565b509392505050565b600082601f830112620004fa57620004f96200038c565b5b81516200050c84826020860162000497565b91505092915050565b6000602082840312156200052e576200052d62000382565b5b600082015167ffffffffffffffff8111156200054f576200054e62000387565b5b6200055d84828501620004e2565b91505092915050565b600081519050919050565b600082825260208201905092915050565b60006200058f8262000566565b6200059b818562000571565b9350620005ad81856020860162000461565b620005b88162000396565b840191505092915050565b60006040820190508181036000830152620005df818562000582565b90508181036020830152620005f5818462000582565b90509392505050565b7f4e487b7100000000000000000000000000000000000000000000000000000000600052602260045260246000fd5b600060028204905060018216806200064657607f821691505b602082108114156200065d576200065c620005fe565b5b50919050565b61514480620006736000396000f3fe6080604052600436106101cd5760003560e01c80638f32d59b116100f7578063c87b56dd11610095578063f2c298be11610064578063f2c298be146106f8578063f77e8bd714610714578063fb825e5f14610751578063fe2c61981461077c576101cd565b8063c87b56dd14610618578063d35bfbd814610655578063d5b0d30d1461067e578063e985e9c5146106bb576101cd565b8063a22cb465116100d1578063a22cb46514610560578063b88d4fde14610589578063bf40fac1146105b2578063c1880a98146105ef576101cd565b80638f32d59b146104cd57806395d89b41146104f85780639791c09714610523576101cd565b80632d5514321161016f578063541e771d1161013e578063541e771d146103eb5780636352211e1461042857806370a08231146104655780638da5cb5b146104a2576101cd565b80632d551432146103435780633ccfd60b1461036e57806342842e0e146103855780634622ab03146103ae576101cd565b8063095ea7b3116101ab578063095ea7b31461027757806311dd8845146102a057806323b872dd146102dd5780632644923514610306576101cd565b806301ffc9a7146101d257806306fdde031461020f578063081812fc1461023a575b600080fd5b3480156101de57600080fd5b506101f960048036038101906101f491906134a8565b6107b9565b60405161020691906134f0565b60405180910390f35b34801561021b57600080fd5b5061022461089b565b60405161023191906135a4565b60405180910390f35b34801561024657600080fd5b50610261600480360381019061025c91906135fc565b61092d565b60405161026e919061366a565b60405180910390f35b34801561028357600080fd5b5061029e600480360381019061029991906136b1565b6109b2565b005b3480156102ac57600080fd5b506102c760048036038101906102c29190613756565b610aca565b6040516102d491906135a4565b60405180910390f35b3480156102e957600080fd5b5061030460048036038101906102ff91906137a3565b610b7d565b005b34801561031257600080fd5b5061032d60048036038101906103289190613926565b610bdd565b60405161033a919061366a565b60405180910390f35b34801561034f57600080fd5b50610358610c26565b60405161036591906135a4565b60405180910390f35b34801561037a57600080fd5b50610383610cb4565b005b34801561039157600080fd5b506103ac60048036038101906103a791906137a3565b610d7a565b005b3480156103ba57600080fd5b506103d560048036038101906103d091906135fc565b610d9a565b6040516103e291906135a4565b60405180910390f35b3480156103f757600080fd5b50610412600480360381019061040d9190613926565b610e3a565b60405161041f91906135a4565b60405180910390f35b34801561043457600080fd5b5061044f600480360381019061044a91906135fc565b610ef0565b60405161045c919061366a565b60405180910390f35b34801561047157600080fd5b5061048c6004803603810190610487919061396f565b610fa2565b60405161049991906139ab565b60405180910390f35b3480156104ae57600080fd5b506104b761105a565b6040516104c491906139e7565b60405180910390f35b3480156104d957600080fd5b506104e2611080565b6040516104ef91906134f0565b60405180910390f35b34801561050457600080fd5b5061050d6110d8565b60405161051a91906135a4565b60405180910390f35b34801561052f57600080fd5b5061054a60048036038101906105459190613756565b61116a565b60405161055791906134f0565b60405180910390f35b34801561056c57600080fd5b5061058760048036038101906105829190613a2e565b61121e565b005b34801561059557600080fd5b506105b060048036038101906105ab9190613b0f565b611234565b005b3480156105be57600080fd5b506105d960048036038101906105d49190613756565b611296565b6040516105e6919061366a565b60405180910390f35b3480156105fb57600080fd5b5061061660048036038101906106119190613b92565b6112e1565b005b34801561062457600080fd5b5061063f600480360381019061063a91906135fc565b6113bc565b60405161064c91906135a4565b60405180910390f35b34801561066157600080fd5b5061067c60048036038101906106779190613b92565b61150e565b005b34801561068a57600080fd5b506106a560048036038101906106a09190613926565b6115e9565b6040516106b291906135a4565b60405180910390f35b3480156106c757600080fd5b506106e260048036038101906106dd9190613c13565b61169f565b6040516106ef91906134f0565b60405180910390f35b610712600480360381019061070d9190613756565b611733565b005b34801561072057600080fd5b5061073b60048036038101906107369190613756565b611bf0565b60405161074891906135a4565b60405180910390f35b34801561075d57600080fd5b50610766611ca3565b6040516107739190613d5f565b60405180910390f35b34801561078857600080fd5b506107a3600480360381019061079e9190613756565b611e81565b6040516107b091906139ab565b60405180910390f35b60007f80ac58cd000000000000000000000000000000000000000000000000000000007bffffffffffffffffffffffffffffffffffffffffffffffffffffffff1916827bffffffffffffffffffffffffffffffffffffffffffffffffffffffff1916148061088457507f5b5e139f000000000000000000000000000000000000000000000000000000007bffffffffffffffffffffffffffffffffffffffffffffffffffffffff1916827bffffffffffffffffffffffffffffffffffffffffffffffffffffffff1916145b80610894575061089382611fc3565b5b9050919050565b6060600080546108aa90613db0565b80601f01602080910402602001604051908101604052809291908181526020018280546108d690613db0565b80156109235780601f106108f857610100808354040283529160200191610923565b820191906000526020600020905b81548152906001019060200180831161090657829003601f168201915b5050505050905090565b60006109388261202d565b610977576040517f08c379a000000000000000000000000000000000000000000000000000000000815260040161096e90613e54565b60405180910390fd5b6004600083815260200190815260200160002060009054906101000a900473ffffffffffffffffffffffffffffffffffffffff169050919050565b60006109bd82610ef0565b90508073ffffffffffffffffffffffffffffffffffffffff168373ffffffffffffffffffffffffffffffffffffffff161415610a2e576040517f08c379a0000000000000000000000000000000000000000000000000000000008152600401610a2590613ee6565b60405180910390fd5b8073ffffffffffffffffffffffffffffffffffffffff16610a4d612099565b73ffffffffffffffffffffffffffffffffffffffff161480610a7c5750610a7b81610a76612099565b61169f565b5b610abb576040517f08c379a0000000000000000000000000000000000000000000000000000000008152600401610ab290613f78565b60405180910390fd5b610ac583836120a1565b505050565b6060600d8383604051610ade929190613fc8565b90815260200160405180910390208054610af790613db0565b80601f0160208091040260200160405190810160405280929190818152602001828054610b2390613db0565b8015610b705780601f10610b4557610100808354040283529160200191610b70565b820191906000526020600020905b815481529060010190602001808311610b5357829003601f168201915b5050505050905092915050565b610b8e610b88612099565b8261215a565b610bcd576040517f08c379a0000000000000000000000000000000000000000000000000000000008152600401610bc490614053565b60405180910390fd5b610bd8838383612238565b505050565b600c818051602081018201805184825260208301602085012081835280955050505050506000915054906101000a900473ffffffffffffffffffffffffffffffffffffffff1681565b60098054610c3390613db0565b80601f0160208091040260200160405190810160405280929190818152602001828054610c5f90613db0565b8015610cac5780601f10610c8157610100808354040283529160200191610cac565b820191906000526020600020905b815481529060010190602001808311610c8f57829003601f168201915b505050505081565b610cbc611080565b610cc557600080fd5b600047905060003373ffffffffffffffffffffffffffffffffffffffff1682604051610cf0906140a4565b60006040518083038185875af1925050503d8060008114610d2d576040519150601f19603f3d011682016040523d82523d6000602084013e610d32565b606091505b5050905080610d76576040517f08c379a0000000000000000000000000000000000000000000000000000000008152600401610d6d90614105565b60405180910390fd5b5050565b610d9583838360405180602001604052806000815250611234565b505050565b600f6020528060005260406000206000915090508054610db990613db0565b80601f0160208091040260200160405190810160405280929190818152602001828054610de590613db0565b8015610e325780601f10610e0757610100808354040283529160200191610e32565b820191906000526020600020905b815481529060010190602001808311610e1557829003601f168201915b505050505081565b600d818051602081018201805184825260208301602085012081835280955050505050506000915090508054610e6f90613db0565b80601f0160208091040260200160405190810160405280929190818152602001828054610e9b90613db0565b8015610ee85780601f10610ebd57610100808354040283529160200191610ee8565b820191906000526020600020905b815481529060010190602001808311610ecb57829003601f168201915b505050505081565b6000806002600084815260200190815260200160002060009054906101000a900473ffffffffffffffffffffffffffffffffffffffff169050600073ffffffffffffffffffffffffffffffffffffffff168173ffffffffffffffffffffffffffffffffffffffff161415610f99576040517f08c379a0000000000000000000000000000000000000000000000000000000008152600401610f9090614197565b60405180910390fd5b80915050919050565b60008073ffffffffffffffffffffffffffffffffffffffff168273ffffffffffffffffffffffffffffffffffffffff161415611013576040517f08c379a000000000000000000000000000000000000000000000000000000000815260040161100a90614229565b60405180910390fd5b600360008373ffffffffffffffffffffffffffffffffffffffff1673ffffffffffffffffffffffffffffffffffffffff168152602001908152602001600020549050919050565b600860009054906101000a900473ffffffffffffffffffffffffffffffffffffffff1681565b6000600860009054906101000a900473ffffffffffffffffffffffffffffffffffffffff1673ffffffffffffffffffffffffffffffffffffffff163373ffffffffffffffffffffffffffffffffffffffff1614905090565b6060600180546110e790613db0565b80601f016020809104026020016040519081016040528092919081815260200182805461111390613db0565b80156111605780601f1061113557610100808354040283529160200191611160565b820191906000526020600020905b81548152906001019060200180831161114357829003601f168201915b5050505050905090565b600060036111bb84848080601f016020809104026020016040519081016040528093929190818152602001838380828437600081840152601f19601f8201169050808301925050505050505061249f565b101580156112165750600a61121384848080601f016020809104026020016040519081016040528093929190818152602001838380828437600081840152601f19601f8201169050808301925050505050505061249f565b11155b905092915050565b611230611229612099565b8383612654565b5050565b61124561123f612099565b8361215a565b611284576040517f08c379a000000000000000000000000000000000000000000000000000000000815260040161127b90614053565b60405180910390fd5b611290848484846127c1565b50505050565b6000600c83836040516112aa929190613fc8565b908152602001604051809103902060009054906101000a900473ffffffffffffffffffffffffffffffffffffffff16905092915050565b600c84846040516112f3929190613fc8565b908152602001604051809103902060009054906101000a900473ffffffffffffffffffffffffffffffffffffffff1673ffffffffffffffffffffffffffffffffffffffff163373ffffffffffffffffffffffffffffffffffffffff1614611386576040517f82b4290000000000000000000000000000000000000000000000000000000000815260040160405180910390fd5b8181600d868660405161139a929190613fc8565b908152602001604051809103902091906113b5929190613313565b5050505050565b60606113c78261202d565b611406576040517f08c379a00000000000000000000000000000000000000000000000000000000081526004016113fd906142bb565b60405180910390fd5b600060066000848152602001908152602001600020805461142690613db0565b80601f016020809104026020016040519081016040528092919081815260200182805461145290613db0565b801561149f5780601f106114745761010080835404028352916020019161149f565b820191906000526020600020905b81548152906001019060200180831161148257829003601f168201915b5050505050905060006114b061281d565b90506000815114156114c6578192505050611509565b6000825111156114fb5780826040516020016114e392919061430c565b60405160208183030381529060405292505050611509565b61150484612834565b925050505b919050565b600c8484604051611520929190613fc8565b908152602001604051809103902060009054906101000a900473ffffffffffffffffffffffffffffffffffffffff1673ffffffffffffffffffffffffffffffffffffffff163373ffffffffffffffffffffffffffffffffffffffff16146115b3576040517f82b4290000000000000000000000000000000000000000000000000000000000815260040160405180910390fd5b8181600e86866040516115c7929190613fc8565b908152602001604051809103902091906115e2929190613313565b5050505050565b600e81805160208101820180518482526020830160208501208183528095505050505050600091509050805461161e90613db0565b80601f016020809104026020016040519081016040528092919081815260200182805461164a90613db0565b80156116975780601f1061166c57610100808354040283529160200191611697565b820191906000526020600020905b81548152906001019060200180831161167a57829003601f168201915b505050505081565b6000600560008473ffffffffffffffffffffffffffffffffffffffff1673ffffffffffffffffffffffffffffffffffffffff16815260200190815260200160002060008373ffffffffffffffffffffffffffffffffffffffff1673ffffffffffffffffffffffffffffffffffffffff16815260200190815260200160002060009054906101000a900460ff16905092915050565b600073ffffffffffffffffffffffffffffffffffffffff16600c838360405161175d929190613fc8565b908152602001604051809103902060009054906101000a900473ffffffffffffffffffffffffffffffffffffffff1673ffffffffffffffffffffffffffffffffffffffff16146117d9576040517f3a81d6fc00000000000000000000000000000000000000000000000000000000815260040160405180910390fd5b6117e3828261116a565b6118265781816040517f7f19f48d00000000000000000000000000000000000000000000000000000000815260040161181d92919061435d565b60405180910390fd5b60006118328383611e81565b905080341015611877576040517f08c379a000000000000000000000000000000000000000000000000000000000815260040161186e906143cd565b60405180910390fd5b60008383600960405160200161188f939291906144cd565b60405160208183030381529060405290506000600a82600b6040516020016118b9939291906144fe565b604051602081830303815290604052905060006118d660076128db565b9050600061192787878080601f016020809104026020016040519081016040528093929190818152602001838380828437600081840152601f19601f8201169050808301925050505050505061249f565b90506000611934826128e9565b9050611a286040518060600160405280603181526020016150656031913989898080601f016020809104026020016040519081016040528093929190818152602001838380828437600081840152601f19601f82011690508083019250505050505050600980546119a490613db0565b80601f01602080910402602001604051908101604052809291908181526020018280546119d090613db0565b8015611a1d5780601f106119f257610100808354040283529160200191611a1d565b820191906000526020600020905b815481529060010190602001808311611a0057829003601f168201915b505050505086612a4a565b6000611a5e86611a3787612aec565b84604051602001611a4a939291906146ab565b604051602081830303815290604052612aec565b9050600081604051602001611a739190614754565b6040516020818303038152906040529050611aa560405180606001604052806039815260200161502c60399139612c84565b611ae46040518060400160405280600e81526020017f46696e616c20746f6b656e55524900000000000000000000000000000000000081525082611f27565b611b0560405180606001604052806039815260200161509660399139612c84565b611b0f3386612d1d565b611b198582612d3b565b33600c8b8b604051611b2c929190613fc8565b908152602001604051809103902060006101000a81548173ffffffffffffffffffffffffffffffffffffffff021916908373ffffffffffffffffffffffffffffffffffffffff160217905550611bb76040518060400160405280601b81526020017f2573206861732072656769737465726564206120646f6d61696e21000000000081525033612daf565b8989600f60008881526020019081526020016000209190611bd9929190613313565b50611be46007612e4b565b50505050505050505050565b6060600e8383604051611c04929190613fc8565b90815260200160405180910390208054611c1d90613db0565b80601f0160208091040260200160405190810160405280929190818152602001828054611c4990613db0565b8015611c965780601f10611c6b57610100808354040283529160200191611c96565b820191906000526020600020905b815481529060010190602001808311611c7957829003601f168201915b5050505050905092915050565b6060611ce36040518060400160405280601f81526020017f47657474696e6720616c6c206e616d65732066726f6d20636f6e747261637400815250612c84565b6000611cef60076128db565b67ffffffffffffffff811115611d0857611d076137fb565b5b604051908082528060200260200182016040528015611d3b57816020015b6060815260200190600190039081611d265790505b50905060005b611d4b60076128db565b811015611e7957600f60008281526020019081526020016000208054611d7090613db0565b80601f0160208091040260200160405190810160405280929190818152602001828054611d9c90613db0565b8015611de95780601f10611dbe57610100808354040283529160200191611de9565b820191906000526020600020905b815481529060010190602001808311611dcc57829003601f168201915b5050505050828281518110611e0157611e00614776565b5b6020026020010181905250611e666040518060400160405280601881526020017f4e616d657320666f7220746f6b656e202564206973202573000000000000000081525082848481518110611e5957611e58614776565b5b6020026020010151612e61565b8080611e71906147d4565b915050611d41565b508091505090565b600080611ed184848080601f016020809104026020016040519081016040528093929190818152602001838380828437600081840152601f19601f8201169050808301925050505050505061249f565b905060008111611ee057600080fd5b6003811415611efa576706f05b59d3b20000915050611f21565b6004811415611f1457670429d069189e0000915050611f21565b67016345785d8a00009150505b92915050565b611fbf8282604051602401611f3d92919061481d565b6040516020818303038152906040527f4b5c4277000000000000000000000000000000000000000000000000000000007bffffffffffffffffffffffffffffffffffffffffffffffffffffffff19166020820180517bffffffffffffffffffffffffffffffffffffffffffffffffffffffff8381831617835250505050612f00565b5050565b60007f01ffc9a7000000000000000000000000000000000000000000000000000000007bffffffffffffffffffffffffffffffffffffffffffffffffffffffff1916827bffffffffffffffffffffffffffffffffffffffffffffffffffffffff1916149050919050565b60008073ffffffffffffffffffffffffffffffffffffffff166002600084815260200190815260200160002060009054906101000a900473ffffffffffffffffffffffffffffffffffffffff1673ffffffffffffffffffffffffffffffffffffffff1614159050919050565b600033905090565b816004600083815260200190815260200160002060006101000a81548173ffffffffffffffffffffffffffffffffffffffff021916908373ffffffffffffffffffffffffffffffffffffffff160217905550808273ffffffffffffffffffffffffffffffffffffffff1661211483610ef0565b73ffffffffffffffffffffffffffffffffffffffff167f8c5be1e5ebec7d5bd14f71427d1e84f3dd0314c0f7b2291e5b200ac8c7c3b92560405160405180910390a45050565b60006121658261202d565b6121a4576040517f08c379a000000000000000000000000000000000000000000000000000000000815260040161219b906148c6565b60405180910390fd5b60006121af83610ef0565b90508073ffffffffffffffffffffffffffffffffffffffff168473ffffffffffffffffffffffffffffffffffffffff1614806121f157506121f0818561169f565b5b8061222f57508373ffffffffffffffffffffffffffffffffffffffff166122178461092d565b73ffffffffffffffffffffffffffffffffffffffff16145b91505092915050565b8273ffffffffffffffffffffffffffffffffffffffff1661225882610ef0565b73ffffffffffffffffffffffffffffffffffffffff16146122ae576040517f08c379a00000000000000000000000000000000000000000000000000000000081526004016122a590614958565b60405180910390fd5b600073ffffffffffffffffffffffffffffffffffffffff168273ffffffffffffffffffffffffffffffffffffffff16141561231e576040517f08c379a0000000000000000000000000000000000000000000000000000000008152600401612315906149ea565b60405180910390fd5b612329838383612f29565b6123346000826120a1565b6001600360008573ffffffffffffffffffffffffffffffffffffffff1673ffffffffffffffffffffffffffffffffffffffff16815260200190815260200160002060008282546123849190614a0a565b925050819055506001600360008473ffffffffffffffffffffffffffffffffffffffff1673ffffffffffffffffffffffffffffffffffffffff16815260200190815260200160002060008282546123db9190614a3e565b92505081905550816002600083815260200190815260200160002060006101000a81548173ffffffffffffffffffffffffffffffffffffffff021916908373ffffffffffffffffffffffffffffffffffffffff160217905550808273ffffffffffffffffffffffffffffffffffffffff168473ffffffffffffffffffffffffffffffffffffffff167fddf252ad1be2c89b69c2b068fc378daa952ba7f163c4a11628f55a4df523b3ef60405160405180910390a461249a838383612f2e565b505050565b60008060008084519050600092505b808210156126495760008583815181106124cb576124ca614776565b5b602001015160f81c60f81b9050608060f81b817effffffffffffffffffffffffffffffffffffffffffffffffffffffffffffff1916101561251a576001836125139190614a3e565b9250612635565b60e060f81b817effffffffffffffffffffffffffffffffffffffffffffffffffffffffffffff1916101561255c576002836125559190614a3e565b9250612634565b60f060f81b817effffffffffffffffffffffffffffffffffffffffffffffffffffffffffffff1916101561259e576003836125979190614a3e565b9250612633565b60f8801b817effffffffffffffffffffffffffffffffffffffffffffffffffffffffffffff191610156125df576004836125d89190614a3e565b9250612632565b60fc60f81b817effffffffffffffffffffffffffffffffffffffffffffffffffffffffffffff191610156126215760058361261a9190614a3e565b9250612631565b60068361262e9190614a3e565b92505b5b5b5b5b508280612641906147d4565b9350506124ae565b829350505050919050565b8173ffffffffffffffffffffffffffffffffffffffff168373ffffffffffffffffffffffffffffffffffffffff1614156126c3576040517f08c379a00000000000000000000000000000000000000000000000000000000081526004016126ba90614ae0565b60405180910390fd5b80600560008573ffffffffffffffffffffffffffffffffffffffff1673ffffffffffffffffffffffffffffffffffffffff16815260200190815260200160002060008473ffffffffffffffffffffffffffffffffffffffff1673ffffffffffffffffffffffffffffffffffffffff16815260200190815260200160002060006101000a81548160ff0219169083151502179055508173ffffffffffffffffffffffffffffffffffffffff168373ffffffffffffffffffffffffffffffffffffffff167f17307eab39ab6107e8899845ad3d59bd9653f200f220920489ca2b5937696c31836040516127b491906134f0565b60405180910390a3505050565b6127cc848484612238565b6127d884848484612f33565b612817576040517f08c379a000000000000000000000000000000000000000000000000000000000815260040161280e90614b72565b60405180910390fd5b50505050565b606060405180602001604052806000815250905090565b606061283f8261202d565b61287e576040517f08c379a000000000000000000000000000000000000000000000000000000000815260040161287590614c04565b60405180910390fd5b600061288861281d565b905060008151116128a857604051806020016040528060008152506128d3565b806128b2846128e9565b6040516020016128c392919061430c565b6040516020818303038152906040525b915050919050565b600081600001549050919050565b60606000821415612931576040518060400160405280600181526020017f30000000000000000000000000000000000000000000000000000000000000008152509050612a45565b600082905060005b6000821461296357808061294c906147d4565b915050600a8261295c9190614c53565b9150612939565b60008167ffffffffffffffff81111561297f5761297e6137fb565b5b6040519080825280601f01601f1916602001820160405280156129b15781602001600182028036833780820191505090505b5090505b60008514612a3e576001826129ca9190614a0a565b9150600a856129d99190614c84565b60306129e59190614a3e565b60f81b8183815181106129fb576129fa614776565b5b60200101907effffffffffffffffffffffffffffffffffffffffffffffffffffffffffffff1916908160001a905350600a85612a379190614c53565b94506129b5565b8093505050505b919050565b612ae684848484604051602401612a649493929190614cb5565b6040516020818303038152906040527f9fd009f5000000000000000000000000000000000000000000000000000000007bffffffffffffffffffffffffffffffffffffffffffffffffffffffff19166020820180517bffffffffffffffffffffffffffffffffffffffffffffffffffffffff8381831617835250505050612f00565b50505050565b60606000825190506000811415612b155760405180602001604052806000815250915050612c7f565b60006003600283612b269190614a3e565b612b309190614c53565b6004612b3c9190614d0f565b90506000602082612b4d9190614a3e565b67ffffffffffffffff811115612b6657612b656137fb565b5b6040519080825280601f01601f191660200182016040528015612b985781602001600182028036833780820191505090505b50905060006040518060600160405280604081526020016150cf604091399050600181016020830160005b86811015612c3c5760038101905062ffffff818a015116603f8160121c168401518060081b905060ff603f83600c1c1686015116810190508060081b905060ff603f8360061c1686015116810190508060081b905060ff603f831686015116810190508060e01b90508084526004840193505050612bc3565b506003860660018114612c565760028114612c6657612c71565b613d3d60f01b6002830352612c71565b603d60f81b60018303525b508484525050819450505050505b919050565b612d1a81604051602401612c9891906135a4565b6040516020818303038152906040527f41304fac000000000000000000000000000000000000000000000000000000007bffffffffffffffffffffffffffffffffffffffffffffffffffffffff19166020820180517bffffffffffffffffffffffffffffffffffffffffffffffffffffffff8381831617835250505050612f00565b50565b612d378282604051806020016040528060008152506130bb565b5050565b612d448261202d565b612d83576040517f08c379a0000000000000000000000000000000000000000000000000000000008152600401612d7a90614ddb565b60405180910390fd5b80600660008481526020019081526020016000209080519060200190612daa929190613399565b505050565b612e478282604051602401612dc5929190614dfb565b6040516020818303038152906040527f319af333000000000000000000000000000000000000000000000000000000007bffffffffffffffffffffffffffffffffffffffffffffffffffffffff19166020820180517bffffffffffffffffffffffffffffffffffffffffffffffffffffffff8381831617835250505050612f00565b5050565b6001816000016000828254019250508190555050565b612efb838383604051602401612e7993929190614e2b565b6040516020818303038152906040527fa3f5c739000000000000000000000000000000000000000000000000000000007bffffffffffffffffffffffffffffffffffffffffffffffffffffffff19166020820180517bffffffffffffffffffffffffffffffffffffffffffffffffffffffff8381831617835250505050612f00565b505050565b60008151905060006a636f6e736f6c652e6c6f679050602083016000808483855afa5050505050565b505050565b505050565b6000612f548473ffffffffffffffffffffffffffffffffffffffff16613116565b156130ae578373ffffffffffffffffffffffffffffffffffffffff1663150b7a02612f7d612099565b8786866040518563ffffffff1660e01b8152600401612f9f9493929190614ec5565b6020604051808303816000875af1925050508015612fdb57506040513d601f19601f82011682018060405250810190612fd89190614f26565b60015b61305e573d806000811461300b576040519150601f19603f3d011682016040523d82523d6000602084013e613010565b606091505b50600081511415613056576040517f08c379a000000000000000000000000000000000000000000000000000000000815260040161304d90614b72565b60405180910390fd5b805181602001fd5b63150b7a0260e01b7bffffffffffffffffffffffffffffffffffffffffffffffffffffffff1916817bffffffffffffffffffffffffffffffffffffffffffffffffffffffff1916149150506130b3565b600190505b949350505050565b6130c58383613139565b6130d26000848484612f33565b613111576040517f08c379a000000000000000000000000000000000000000000000000000000000815260040161310890614b72565b60405180910390fd5b505050565b6000808273ffffffffffffffffffffffffffffffffffffffff163b119050919050565b600073ffffffffffffffffffffffffffffffffffffffff168273ffffffffffffffffffffffffffffffffffffffff1614156131a9576040517f08c379a00000000000000000000000000000000000000000000000000000000081526004016131a090614f9f565b60405180910390fd5b6131b28161202d565b156131f2576040517f08c379a00000000000000000000000000000000000000000000000000000000081526004016131e99061500b565b60405180910390fd5b6131fe60008383612f29565b6001600360008473ffffffffffffffffffffffffffffffffffffffff1673ffffffffffffffffffffffffffffffffffffffff168152602001908152602001600020600082825461324e9190614a3e565b92505081905550816002600083815260200190815260200160002060006101000a81548173ffffffffffffffffffffffffffffffffffffffff021916908373ffffffffffffffffffffffffffffffffffffffff160217905550808273ffffffffffffffffffffffffffffffffffffffff16600073ffffffffffffffffffffffffffffffffffffffff167fddf252ad1be2c89b69c2b068fc378daa952ba7f163c4a11628f55a4df523b3ef60405160405180910390a461330f60008383612f2e565b5050565b82805461331f90613db0565b90600052602060002090601f0160209004810192826133415760008555613388565b82601f1061335a57803560ff1916838001178555613388565b82800160010185558215613388579182015b8281111561338757823582559160200191906001019061336c565b5b509050613395919061341f565b5090565b8280546133a590613db0565b90600052602060002090601f0160209004810192826133c7576000855561340e565b82601f106133e057805160ff191683800117855561340e565b8280016001018555821561340e579182015b8281111561340d5782518255916020019190600101906133f2565b5b50905061341b919061341f565b5090565b5b80821115613438576000816000905550600101613420565b5090565b6000604051905090565b600080fd5b600080fd5b60007fffffffff0000000000000000000000000000000000000000000000000000000082169050919050565b61348581613450565b811461349057600080fd5b50565b6000813590506134a28161347c565b92915050565b6000602082840312156134be576134bd613446565b5b60006134cc84828501613493565b91505092915050565b60008115159050919050565b6134ea816134d5565b82525050565b600060208201905061350560008301846134e1565b92915050565b600081519050919050565b600082825260208201905092915050565b60005b8381101561354557808201518184015260208101905061352a565b83811115613554576000848401525b50505050565b6000601f19601f8301169050919050565b60006135768261350b565b6135808185613516565b9350613590818560208601613527565b6135998161355a565b840191505092915050565b600060208201905081810360008301526135be818461356b565b905092915050565b6000819050919050565b6135d9816135c6565b81146135e457600080fd5b50565b6000813590506135f6816135d0565b92915050565b60006020828403121561361257613611613446565b5b6000613620848285016135e7565b91505092915050565b600073ffffffffffffffffffffffffffffffffffffffff82169050919050565b600061365482613629565b9050919050565b61366481613649565b82525050565b600060208201905061367f600083018461365b565b92915050565b61368e81613649565b811461369957600080fd5b50565b6000813590506136ab81613685565b92915050565b600080604083850312156136c8576136c7613446565b5b60006136d68582860161369c565b92505060206136e7858286016135e7565b9150509250929050565b600080fd5b600080fd5b600080fd5b60008083601f840112613716576137156136f1565b5b8235905067ffffffffffffffff811115613733576137326136f6565b5b60208301915083600182028301111561374f5761374e6136fb565b5b9250929050565b6000806020838503121561376d5761376c613446565b5b600083013567ffffffffffffffff81111561378b5761378a61344b565b5b61379785828601613700565b92509250509250929050565b6000806000606084860312156137bc576137bb613446565b5b60006137ca8682870161369c565b93505060206137db8682870161369c565b92505060406137ec868287016135e7565b9150509250925092565b600080fd5b7f4e487b7100000000000000000000000000000000000000000000000000000000600052604160045260246000fd5b6138338261355a565b810181811067ffffffffffffffff82111715613852576138516137fb565b5b80604052505050565b600061386561343c565b9050613871828261382a565b919050565b600067ffffffffffffffff821115613891576138906137fb565b5b61389a8261355a565b9050602081019050919050565b82818337600083830152505050565b60006138c96138c484613876565b61385b565b9050828152602081018484840111156138e5576138e46137f6565b5b6138f08482856138a7565b509392505050565b600082601f83011261390d5761390c6136f1565b5b813561391d8482602086016138b6565b91505092915050565b60006020828403121561393c5761393b613446565b5b600082013567ffffffffffffffff81111561395a5761395961344b565b5b613966848285016138f8565b91505092915050565b60006020828403121561398557613984613446565b5b60006139938482850161369c565b91505092915050565b6139a5816135c6565b82525050565b60006020820190506139c0600083018461399c565b92915050565b60006139d182613629565b9050919050565b6139e1816139c6565b82525050565b60006020820190506139fc60008301846139d8565b92915050565b613a0b816134d5565b8114613a1657600080fd5b50565b600081359050613a2881613a02565b92915050565b60008060408385031215613a4557613a44613446565b5b6000613a538582860161369c565b9250506020613a6485828601613a19565b9150509250929050565b600067ffffffffffffffff821115613a8957613a886137fb565b5b613a928261355a565b9050602081019050919050565b6000613ab2613aad84613a6e565b61385b565b905082815260208101848484011115613ace57613acd6137f6565b5b613ad98482856138a7565b509392505050565b600082601f830112613af657613af56136f1565b5b8135613b06848260208601613a9f565b91505092915050565b60008060008060808587031215613b2957613b28613446565b5b6000613b378782880161369c565b9450506020613b488782880161369c565b9350506040613b59878288016135e7565b925050606085013567ffffffffffffffff811115613b7a57613b7961344b565b5b613b8687828801613ae1565b91505092959194509250565b60008060008060408587031215613bac57613bab613446565b5b600085013567ffffffffffffffff811115613bca57613bc961344b565b5b613bd687828801613700565b9450945050602085013567ffffffffffffffff811115613bf957613bf861344b565b5b613c0587828801613700565b925092505092959194509250565b60008060408385031215613c2a57613c29613446565b5b6000613c388582860161369c565b9250506020613c498582860161369c565b9150509250929050565b600081519050919050565b600082825260208201905092915050565b6000819050602082019050919050565b600082825260208201905092915050565b6000613c9b8261350b565b613ca58185613c7f565b9350613cb5818560208601613527565b613cbe8161355a565b840191505092915050565b6000613cd58383613c90565b905092915050565b6000602082019050919050565b6000613cf582613c53565b613cff8185613c5e565b935083602082028501613d1185613c6f565b8060005b85811015613d4d5784840389528151613d2e8582613cc9565b9450613d3983613cdd565b925060208a01995050600181019050613d15565b50829750879550505050505092915050565b60006020820190508181036000830152613d798184613cea565b905092915050565b7f4e487b7100000000000000000000000000000000000000000000000000000000600052602260045260246000fd5b60006002820490506001821680613dc857607f821691505b60208210811415613ddc57613ddb613d81565b5b50919050565b7f4552433732313a20617070726f76656420717565727920666f72206e6f6e657860008201527f697374656e7420746f6b656e0000000000000000000000000000000000000000602082015250565b6000613e3e602c83613516565b9150613e4982613de2565b604082019050919050565b60006020820190508181036000830152613e6d81613e31565b9050919050565b7f4552433732313a20617070726f76616c20746f2063757272656e74206f776e6560008201527f7200000000000000000000000000000000000000000000000000000000000000602082015250565b6000613ed0602183613516565b9150613edb82613e74565b604082019050919050565b60006020820190508181036000830152613eff81613ec3565b9050919050565b7f4552433732313a20617070726f76652063616c6c6572206973206e6f74206f7760008201527f6e6572206e6f7220617070726f76656420666f7220616c6c0000000000000000602082015250565b6000613f62603883613516565b9150613f6d82613f06565b604082019050919050565b60006020820190508181036000830152613f9181613f55565b9050919050565b600081905092915050565b6000613faf8385613f98565b9350613fbc8385846138a7565b82840190509392505050565b6000613fd5828486613fa3565b91508190509392505050565b7f4552433732313a207472616e736665722063616c6c6572206973206e6f74206f60008201527f776e6572206e6f7220617070726f766564000000000000000000000000000000602082015250565b600061403d603183613516565b915061404882613fe1565b604082019050919050565b6000602082019050818103600083015261406c81614030565b9050919050565b600081905092915050565b50565b600061408e600083614073565b91506140998261407e565b600082019050919050565b60006140af82614081565b9150819050919050565b7f4661696c656420746f205769746864726177204d617469630000000000000000600082015250565b60006140ef601883613516565b91506140fa826140b9565b602082019050919050565b6000602082019050818103600083015261411e816140e2565b9050919050565b7f4552433732313a206f776e657220717565727920666f72206e6f6e657869737460008201527f656e7420746f6b656e0000000000000000000000000000000000000000000000602082015250565b6000614181602983613516565b915061418c82614125565b604082019050919050565b600060208201905081810360008301526141b081614174565b9050919050565b7f4552433732313a2062616c616e636520717565727920666f7220746865207a6560008201527f726f206164647265737300000000000000000000000000000000000000000000602082015250565b6000614213602a83613516565b915061421e826141b7565b604082019050919050565b6000602082019050818103600083015261424281614206565b9050919050565b7f45524337323155524953746f726167653a2055524920717565727920666f722060008201527f6e6f6e6578697374656e7420746f6b656e000000000000000000000000000000602082015250565b60006142a5603183613516565b91506142b082614249565b604082019050919050565b600060208201905081810360008301526142d481614298565b9050919050565b60006142e68261350b565b6142f08185613f98565b9350614300818560208601613527565b80840191505092915050565b600061431882856142db565b915061432482846142db565b91508190509392505050565b600061433c8385613516565b93506143498385846138a7565b6143528361355a565b840190509392505050565b60006020820190508181036000830152614378818486614330565b90509392505050565b7f4e6f7420656e6f756768204d6174696320706169640000000000000000000000600082015250565b60006143b7601583613516565b91506143c282614381565b602082019050919050565b600060208201905081810360008301526143e6816143aa565b9050919050565b7f2e00000000000000000000000000000000000000000000000000000000000000600082015250565b6000614423600183613f98565b915061442e826143ed565b600182019050919050565b60008190508160005260206000209050919050565b6000815461445b81613db0565b6144658186613f98565b945060018216600081146144805760018114614491576144c4565b60ff198316865281860193506144c4565b61449a85614439565b60005b838110156144bc5781548189015260018201915060208101905061449d565b838801955050505b50505092915050565b60006144da828587613fa3565b91506144e582614416565b91506144f1828461444e565b9150819050949350505050565b600061450a828661444e565b915061451682856142db565b9150614522828461444e565b9150819050949350505050565b7f7b226e616d65223a202200000000000000000000000000000000000000000000600082015250565b6000614565600a83613f98565b91506145708261452f565b600a82019050919050565b7f222c20226465736372697074696f6e223a20224120646f6d61696e206f6e207460008201527f686520506f6c79676f6e204e616d652053657276696365222c2022696d61676560208201527f223a2022646174613a696d6167652f7376672b786d6c3b6261736536342c0000604082015250565b60006145fd605e83613f98565b91506146088261457b565b605e82019050919050565b7f222c226c656e677468223a220000000000000000000000000000000000000000600082015250565b6000614649600c83613f98565b915061465482614613565b600c82019050919050565b7f227d000000000000000000000000000000000000000000000000000000000000600082015250565b6000614695600283613f98565b91506146a08261465f565b600282019050919050565b60006146b682614558565b91506146c282866142db565b91506146cd826145f0565b91506146d982856142db565b91506146e48261463c565b91506146f082846142db565b91506146fb82614688565b9150819050949350505050565b7f646174613a6170706c69636174696f6e2f6a736f6e3b6261736536342c000000600082015250565b600061473e601d83613f98565b915061474982614708565b601d82019050919050565b600061475f82614731565b915061476b82846142db565b915081905092915050565b7f4e487b7100000000000000000000000000000000000000000000000000000000600052603260045260246000fd5b7f4e487b7100000000000000000000000000000000000000000000000000000000600052601160045260246000fd5b60006147df826135c6565b91507fffffffffffffffffffffffffffffffffffffffffffffffffffffffffffffffff821415614812576148116147a5565b5b600182019050919050565b60006040820190508181036000830152614837818561356b565b9050818103602083015261484b818461356b565b90509392505050565b7f4552433732313a206f70657261746f7220717565727920666f72206e6f6e657860008201527f697374656e7420746f6b656e0000000000000000000000000000000000000000602082015250565b60006148b0602c83613516565b91506148bb82614854565b604082019050919050565b600060208201905081810360008301526148df816148a3565b9050919050565b7f4552433732313a207472616e736665722066726f6d20696e636f72726563742060008201527f6f776e6572000000000000000000000000000000000000000000000000000000602082015250565b6000614942602583613516565b915061494d826148e6565b604082019050919050565b6000602082019050818103600083015261497181614935565b9050919050565b7f4552433732313a207472616e7366657220746f20746865207a65726f2061646460008201527f7265737300000000000000000000000000000000000000000000000000000000602082015250565b60006149d4602483613516565b91506149df82614978565b604082019050919050565b60006020820190508181036000830152614a03816149c7565b9050919050565b6000614a15826135c6565b9150614a20836135c6565b925082821015614a3357614a326147a5565b5b828203905092915050565b6000614a49826135c6565b9150614a54836135c6565b9250827fffffffffffffffffffffffffffffffffffffffffffffffffffffffffffffffff03821115614a8957614a886147a5565b5b828201905092915050565b7f4552433732313a20617070726f766520746f2063616c6c657200000000000000600082015250565b6000614aca601983613516565b9150614ad582614a94565b602082019050919050565b60006020820190508181036000830152614af981614abd565b9050919050565b7f4552433732313a207472616e7366657220746f206e6f6e20455243373231526560008201527f63656976657220696d706c656d656e7465720000000000000000000000000000602082015250565b6000614b5c603283613516565b9150614b6782614b00565b604082019050919050565b60006020820190508181036000830152614b8b81614b4f565b9050919050565b7f4552433732314d657461646174613a2055524920717565727920666f72206e6f60008201527f6e6578697374656e7420746f6b656e0000000000000000000000000000000000602082015250565b6000614bee602f83613516565b9150614bf982614b92565b604082019050919050565b60006020820190508181036000830152614c1d81614be1565b9050919050565b7f4e487b7100000000000000000000000000000000000000000000000000000000600052601260045260246000fd5b6000614c5e826135c6565b9150614c69836135c6565b925082614c7957614c78614c24565b5b828204905092915050565b6000614c8f826135c6565b9150614c9a836135c6565b925082614caa57614ca9614c24565b5b828206905092915050565b60006080820190508181036000830152614ccf818761356b565b90508181036020830152614ce3818661356b565b90508181036040830152614cf7818561356b565b9050614d06606083018461399c565b95945050505050565b6000614d1a826135c6565b9150614d25836135c6565b9250817fffffffffffffffffffffffffffffffffffffffffffffffffffffffffffffffff0483118215151615614d5e57614d5d6147a5565b5b828202905092915050565b7f45524337323155524953746f726167653a2055524920736574206f66206e6f6e60008201527f6578697374656e7420746f6b656e000000000000000000000000000000000000602082015250565b6000614dc5602e83613516565b9150614dd082614d69565b604082019050919050565b60006020820190508181036000830152614df481614db8565b9050919050565b60006040820190508181036000830152614e15818561356b565b9050614e24602083018461365b565b9392505050565b60006060820190508181036000830152614e45818661356b565b9050614e54602083018561399c565b8181036040830152614e66818461356b565b9050949350505050565b600081519050919050565b600082825260208201905092915050565b6000614e9782614e70565b614ea18185614e7b565b9350614eb1818560208601613527565b614eba8161355a565b840191505092915050565b6000608082019050614eda600083018761365b565b614ee7602083018661365b565b614ef4604083018561399c565b8181036060830152614f068184614e8c565b905095945050505050565b600081519050614f208161347c565b92915050565b600060208284031215614f3c57614f3b613446565b5b6000614f4a84828501614f11565b91505092915050565b7f4552433732313a206d696e7420746f20746865207a65726f2061646472657373600082015250565b6000614f89602083613516565b9150614f9482614f53565b602082019050919050565b60006020820190508181036000830152614fb881614f7c565b9050919050565b7f4552433732313a20746f6b656e20616c7265616479206d696e74656400000000600082015250565b6000614ff5601c83613516565b915061500082614fbf565b602082019050919050565b6000602082019050818103600083015261502481614fe8565b905091905056fe0a2d2d2d2d2d2d2d2d2d2d2d2d2d2d2d2d2d2d2d2d2d2d2d2d2d2d2d2d2d2d2d2d2d2d2d2d2d2d2d2d2d2d2d2d2d2d2d2d2d2d2d2d2d2d2d2d5265676973746572696e672025732e2573206f6e2074686520636f6e7472616374207769746820746f6b656e49442025642d2d2d2d2d2d2d2d2d2d2d2d2d2d2d2d2d2d2d2d2d2d2d2d2d2d2d2d2d2d2d2d2d2d2d2d2d2d2d2d2d2d2d2d2d2d2d2d2d2d2d2d2d2d2d2d0a4142434445464748494a4b4c4d4e4f505152535455565758595a6162636465666768696a6b6c6d6e6f707172737475767778797a303132333435363738392b2fa26469706673582212206499236d02307e12ccf3149a4af97697548b1a74600595a8e18386f3fa21a07964736f6c634300080a00333c73766720786d6c6e733d22687474703a2f2f7777772e77332e6f72672f323030302f737667222077696474683d2232373022206865696768743d22323730222066696c6c3d226e6f6e65223e3c706174682066696c6c3d2275726c282342292220643d224d302030683237307632373048307a222f3e3c646566733e3c66696c7465722069643d22412220636f6c6f722d696e746572706f6c6174696f6e2d66696c746572733d2273524742222066696c746572556e6974733d227573657253706163654f6e55736522206865696768743d22323730222077696474683d22323730223e3c666544726f70536861646f772064783d2230222064793d22312220737464446576696174696f6e3d22322220666c6f6f642d6f7061636974793d222e323235222077696474683d223230302522206865696768743d2232303025222f3e3c2f66696c7465723e3c2f646566733e3c7061746820643d224d37322e3836332034322e393439632d2e3636382d2e3338372d312e3432362d2e35392d322e3139372d2e3539732d312e3532392e3230342d322e3139372e35396c2d31302e30383120362e3033322d362e383520332e3933342d31302e30383120362e303332632d2e3636382e3338372d312e3432362e35392d322e3139372e3539732d312e3532392d2e3230342d322e3139372d2e35396c2d382e3031332d342e37323161342e353220342e35322030203020312d312e3538392d312e363136632d2e3338342d2e3636352d2e3539342d312e3431382d2e3630382d322e313837762d392e3331632d2e3031332d2e3737352e3138352d312e3533382e3537322d322e32303861342e323520342e323520302030203120312e3632352d312e3539356c372e3838342d342e3539632e3636382d2e33383720312e3432362d2e353920322e3139372d2e353973312e3532392e32303420322e3139372e35396c372e38383420342e353961342e353220342e353220302030203120312e35383920312e363136632e3338342e3636352e35393420312e3431382e36303820322e31383776362e3033326c362e38352d342e303635762d362e303332632e3031332d2e3737352d2e3138352d312e3533382d2e3537322d322e32303861342e323520342e32352030203020302d312e3632352d312e3539354c34312e3435362032342e3539632d2e3636382d2e3338372d312e3432362d2e35392d322e3139372d2e3539732d312e3532392e3230342d322e3139372e35396c2d31342e38363420382e36353561342e323520342e32352030203020302d312e36323520312e353935632d2e3338372e36372d2e35383520312e3433342d2e35373220322e3230387631372e343431632d2e3031332e3737352e31383520312e3533382e35373220322e32303861342e323520342e323520302030203020312e36323520312e3539356c31342e38363420382e363535632e3636382e33383720312e3432362e353920322e3139372e353973312e3532392d2e32303420322e3139372d2e35396c31302e3038312d352e39303120362e38352d342e3036352031302e3038312d352e393031632e3636382d2e33383720312e3432362d2e353920322e3139372d2e353973312e3532392e32303420322e3139372e35396c372e38383420342e353961342e353220342e353220302030203120312e35383920312e363136632e3338342e3636352e35393420312e3431382e36303820322e31383776392e333131632e3031332e3737352d2e31383520312e3533382d2e35373220322e32303861342e323520342e32352030203020312d312e36323520312e3539356c2d372e38383420342e373231632d2e3636382e3338372d312e3432362e35392d322e3139372e3539732d312e3532392d2e3230342d322e3139372d2e35396c2d372e3838342d342e353961342e353220342e35322030203020312d312e3538392d312e363136632d2e3338352d2e3636352d2e3539342d312e3431382d2e3630382d322e313837762d362e3033326c2d362e383520342e30363576362e303332632d2e3031332e3737352e31383520312e3533382e35373220322e32303861342e323520342e323520302030203020312e36323520312e3539356c31342e38363420382e363535632e3636382e33383720312e3432362e353920322e3139372e353973312e3532392d2e32303420322e3139372d2e35396c31342e3836342d382e363535632e3635372d2e33393420312e3230342d2e393520312e3538392d312e363136732e3539342d312e3431382e3630392d322e3138375635352e353338632e3031332d2e3737352d2e3138352d312e3533382d2e3537322d322e32303861342e323520342e32352030203020302d312e3632352d312e3539356c2d31342e3939332d382e3738367a222066696c6c3d2223666666222f3e3c646566733e3c6c696e6561724772616469656e742069643d2242222078313d2230222079313d2230222078323d22323730222079323d2232373022206772616469656e74556e6974733d227573657253706163654f6e557365223e3c73746f702073746f702d636f6c6f723d2223636235656565222f3e3c73746f70206f66667365743d2231222073746f702d636f6c6f723d2223306364376534222073746f702d6f7061636974793d222e3939222f3e3c2f6c696e6561724772616469656e743e3c2f646566733e3c7465787420783d2233322e352220793d223233312220666f6e742d73697a653d223237222066696c6c3d2223666666222066696c7465723d2275726c282341292220666f6e742d66616d696c793d22506c7573204a616b617274612053616e732c44656a6156752053616e732c4e6f746f20436f6c6f7220456d6f6a692c4170706c6520436f6c6f7220456d6f6a692c73616e732d73657269662220666f6e742d7765696768743d22626f6c64223e",
  "linkReferences": {},
  "deployedLinkReferences": {}
}